:100000000C9456000C9468000C9468000C946800E2
:100010000C9468000C9468000C9468000C946800C0
:100020000C9468000C9468000C9468000C946800B0
:100030000C9468000C9468000C9468000C946800A0
:100040000C9468000C9468000C9451010C94C90144
:100050000C9468000C9468000C9468000C94680080
:100060000C9468000C9468000C9468000C94680070
:100070000C9468000C9468000C9468000C94680060
:100080000C9468000C9468000C9468000C94680050
:100090000C9468007E6E7F620C37260C37120C378A
:1000A0000E0C37060C37020C37000C3611241FBE1D
:1000B000CFEFD0E1DEBFCDBF22E0A0E0B1E001C0D4
:1000C0001D92AF35B207E1F70E94D8040C941305D6
:1000D0000C9400001F93CF93DF93CDB7DEB7299721
:1000E0000FB6F894DEBF0FBECDBF84E00E941301AF
:1000F000182FBE016F5F7F4F89E0FB0111928A9537
:10010000E9F780E00E942F027894812F29960FB69C
:10011000F894DEBF0FBECDBFDF91CF911F91089540
:10012000CF93DF93CDB7DEB72E970FB6F894DEBF2F
:100130000FBECDBF9F894B895C896D897E894983BC
:100140005A836B837C838D818E7F82608D839E83B7
:10015000FE017896DE01179680E089130DC0CE016E
:1001600001960E9498032E960FB6F894DEBF0FBE3C
:10017000CDBFDF91CF910895208132962D938F5F6F
:10018000ECCF80910201882311F08FEF089590E069
:1001900080E09093ED002091EF00207C29F08F5FAC
:1001A000905F8F30B1F7F1CF0895883080F440919F
:1001B000DE0021E030E0B90102C0660F771F8A95AA
:1001C000E2F7CB01809584238093DE00089530917F
:1001D000DF0028EF280F81E090E001C0880F2A950A
:1001E000EAF7809583238093DF000895883068F4D0
:1001F0009091DE0021E030E001C0220F8A95EAF7FD
:10020000892F822B8093DE0008959091DF00885023
:1002100021E030E001C0220F8A95EAF7892F822B76
:100220008093DF000895883008F039C09091D8009D
:1002300091609093D80023E0829FC0011124FC01BB
:10024000EC56FF4FE491E093E200FC01EB56FF4FC8
:10025000E491E093E3008A569F4FFC0184918093E0
:10026000E4001092DA0080EB8093DB0087EC80934F
:10027000E5008FEF0E94E10149E751E060E189E587
:1002800092E00E94710443E051E068E083E791E06E
:100290000E94710482E08093D80081E0089580E09C
:1002A00008951F920F920FB60F9211240BB60F9262
:1002B0002F933F934F935F936F937F938F939F936E
:1002C000AF93BF93CF93DF93EF93FF938091EC00B5
:1002D000807F803F09F458C0C091ED008091EC0010
:1002E000807F8093ED00D091EC008091EE0086FF3E
:1002F00036C08091EE001092EE001092EF0083E77E
:1003000091E00E94B404009761F00E94100383E71B
:1003100091E00E94C9048091EF0080648093EF0017
:1003200007C08D2F82958F700E94D5001092020118
:10033000C093ED00FF91EF91DF91CF91BF91AF910D
:100340009F918F917F916F915F914F913F912F91ED
:100350000F900BBE0F900FBE0F901F90189589E560
:1003600092E00E949004009731F00E94C90389E551
:1003700092E00E94A5048091EE001092EE00809120
:10038000EF0080718068CACF8091DA008093DA0034
:10039000D1CF1F920F920FB60F9211240F900FBE64
:1003A0000F901F90189589E592E00E947C0491E0DF
:1003B0008927089583E791E00E94850491E08927C9
:1003C0000895CF938F30C0F08F3F09F046C0109250
:1003D000DF001092DE0080E08093ED009091EF004E
:1003E0001092EF009091EE001092EE00805F803F3F
:1003F00099F781E0CF91089590E89093D80090917B
:10040000D90093FDFCCF1092D8009091D900C92F4C
:10041000C47092FDFACF982F9295907F9093ED0043
:100420009091EE001092EE001092EF000E94D50025
:100430008091ED00C093ED009091EF009093EF005C
:10044000C05FC03FB9F78093ED0082E08093D80091
:100450008091D90082FFFCCFCCCF80E0CBCFCF936F
:10046000FB018F3008F0DAC090E89093D8009091AB
:10047000D90093FDFCCF1092D8009091D900C92FDC
:10048000C47092FDFACF982F9295907F9093ED00D3
:100490001092EE001092EF0090859C709C3009F055
:1004A0008FC09081990F990F990F9093F000408120
:1004B000518162817381A5E076956795579547953F
:1004C000AA95D1F74093F1004081518162817381F7
:1004D000BDE07695679557954795BA95D1F74093C6
:1004E000F200408151816281738195E17695679533
:1004F000579547959A95D1F74093F300248198E05A
:10050000299F9001112421602093F400448155819A
:100510006681778125E076956795579547952A9569
:10052000D1F74093F50044815581668177813DE0A4
:1005300076956795579547953A95D1F74093F6008C
:100540004481558166817781A5E1769567955795B8
:100550004795AA95D1F74093F7009091EF009061ED
:100560009093EF00908591FF0DC09091F4009460FE
:100570009093F400908590FF05C09091F0009460F6
:100580009093F0009091EF0090689093EF000E949C
:10059000F6008091ED00C093ED009091EF009093F4
:1005A000EF00C05FC03FB9F78093ED0082E0809319
:1005B000D8008091D90082FFFCCF81E0CF910895CF
:1005C0001092F0001092F10090819295990F907E18
:1005D0009093F2002081318143E0369527954A952A
:1005E000E1F72093F30090859C70A9F091E090933F
:1005F000F4001092F50094819295990F907E90935B
:10060000F6002481358193E0369527959A95E1F798
:100610002093F700A7CF1092F400EBCF80E0CECF6D
:10062000CF93DF9300D000D0CDB7DEB7FC0185813A
:100630008093EF00848181FF32C08091EF00806160
:100640008093EF008081880F880F880F8093F000DF
:1006500080819181A281B38133E0880F991FAA1F05
:10066000BB1F3A95D1F789839A83AB83BC838A8178
:100670008093F1008B818093F2008C818093F30052
:10068000848180FF1EC08091F00084608093F00020
:100690000F900F900F900F90DF91CF9108951092CF
:1006A000F0001092F10080818295880F807E809307
:1006B000F2008081918123E0969587952A95E1F754
:1006C000DDCF9F012A5F3F4FD90195818A2F821B81
:1006D0008917F0F68D918093FA00F7CF0F931F934F
:1006E000CF938C010E94C100C82F8F30F8F48295FF
:1006F000807F8093ED008091EE001092EE00C801A3
:100700000E9410038C2F0E94F6008FB7F89491E09E
:10071000909302018FBF8091EF0080648093EF007F
:1007200081E08C0FCF911F910F91089580E0FACF57
:100730001F93CF93DF93EC01809102018823E1F0B6
:1007400083E791E00E949004DC01892BD9F09EE0C0
:10075000FE0101900D929A95E1F71FB7F89480E0A1
:1007600090910201992329F083E791E00E94A5046A
:1007700081E01FBF81110BC0CE01DF91CF911F918E
:100780000C946E0380E0DF91CF911F91089581E07A
:10079000FACFCF93DF9300D000D0CDB7DEB7FC0106
:1007A0009091EF00892F8F708583848194FF2CC0F6
:1007B0009091F00099839091F1009A839091F200CA
:1007C0009B839091F3009C8349815A816B817C814A
:1007D00093E076956795579547959A95D1F740831D
:1007E000518362837383826084839091F00084815B
:1007F00092FF1EC08160848381E00F900F900F9064
:100800000F90DF91CF9108959091F2009295969577
:1008100097704091F30028E0429FA0011124492BDA
:1008200060E070E040835183628373838D7FDCCF0F
:100830008E7F84839F012A5F3F4FD90195818A2F44
:10084000821B8917C8F68091FA008D93F7CF0F931A
:100850001F93CF938C010E94D301811105C080E0CA
:10086000CF911F910F91089580E0C0E08093ED003B
:100870009091EE0095FF16C08091EE001092EE0070
:10088000C8010E94C903182F8C2F0E94F600809186
:10089000EF00807180688093EF00112301F381E005
:1008A0008C0FDECFCF5F805FCF3001F7D8CFCF93F3
:1008B000DF93EC0189E592E00E94B404FC01892BEE
:1008C00071F09EE0DE0101900D929A95E1F789E5C5
:1008D00092E00E94C9048FEFDF91CF91089580E0EC
:1008E000FBCFFC018FB7F89462835183408314825D
:1008F000158213828FBF08952FB7F894FC0193815E
:100900002FBF81E0911180E008953FB7F894FC017A
:10091000238192813FBF81E0291708F480E0089588
:10092000CF93DF93EC010E94850481110BC02C81D1
:10093000888199813EE0239F800D911D1124DF91D4
:10094000CF91089580E090E0FACFFC019FB7F89432
:1009500083818F5F838384818F5F84832281821769
:1009600008F014829FBF0895CF93DF93EC010E949B
:100970007C0481110BC02D81888199813EE0239FE9
:10098000800D911D1124DF91CF91089580E090E0BA
:10099000FACFFC019FB7F8948381815083838581CE
:1009A0008F5F85832281821708F015829FBF08958B
:1009B000CF93DF93CDB7DEB72E970FB6F894DEBF97
:1009C0000FBECDBF0E946A0011B811E008E080B1EF
:1009D00083FB882780F9809300019091010189179A
:1009E00081F0809301011F928F931F931F921F929A
:1009F0001F920F930E9490000FB6F894DEBF0FBEB7
:100A0000CDBF0E94D301882311F3CE0101960E942D
:100A100057048823E1F28F818F5F8F83CE01019687
:0A0A20000E949803D4CFF894FFCF92
:00000001FF
