:100000000C944A000C9469000C9469000C946900EB
:100010000C9469000C9469000C9469000C946900BC
:100020000C9469000C9469000C9469000C946900AC
:100030000C9469000C9469000C9469000C9469009C
:100040000C9469000C9469000C9469000C9469008C
:100050000C9469000C9469000C9469000C9469007C
:100060000C9469000C9469000C9469000C9469006C
:100070000C9469000C9469000C9469000C9469005C
:100080000C9469000C9469000C9469000C9469004C
:100090000C94690011241FBECFEFD0E1DEBFCDBFAD
:1000A00011E0A0E0B1E0E4E7FBE000E00BBF02C03C
:1000B00007900D92A830B107D9F721E0A8E0B1E090
:1000C00001C01D92A830B207E1F70E946B000C94AA
:1000D000B8050C940000CF93DF93CDB7DEB76497DB
:1000E0000FB6F894DEBF0FBECDBF8FEF81B980E0B1
:1000F0000E94970086E0E0E0F1E0DE011D960190AD
:100100000D928A95E1F71C8A1B8ACE010D9699877C
:1001100088871C8684E08F8380E890E09C838B83B3
:100120008BE08A83CE0101960E94A400FBCF0E943F
:10013000A105882341F00E947F058091D80082604C
:100140008093D80081E008950F931F93CF93DF939E
:1001500000D000D0CDB7DEB78C01DC0111968C91B8
:1001600011978C30F1F419968C911997803669F4B7
:100170008C918295807F8093ED008091EF008F734A
:100180008093EF001092EE001C92F801118680E03F
:100190000F900F900F900F90DF91CF911F910F91C3
:1001A00008950E948C058F3F09F4A5C490E6D801FC
:1001B00019969C9319978C938295807F8093ED007C
:1001C000EEEEF0E01192E83FF105E1F7D80111966B
:1001D000EC918E2F90E0FC013197EB30F10508F0A7
:1001E00086C4EB50FF4F0C94AF053E01A7011502EA
:1001F0007802AA02E2021D03B30331040001D40411
:1002000080E0F8019681891708F4C2C319821A8226
:100210001B821C821092F7008B81880F880F880F39
:100220009A81929596959770890F8093F6008A81AE
:10023000880F880F880F9981929596959770890FEE
:100240008093F5008981880F880F880F8093F400D0
:100250008091EF009681892B8093EF0081E0828767
:100260008091F40084608093F4008091F0008460B9
:100270008093F0008091EF008062DCC1F8018385FB
:10028000882309F43FC08581880F880F880F9481E7
:10029000929596959770890F8093F3008481880FCB
:1002A000880F880F9381929596959770890F809308
:1002B000F2008381880F880F880F9281929596951E
:1002C0009770890F8093F1008281880F880F880FC3
:1002D0008093F0008091EF0080618093EF0080E0D8
:1002E000F8019681891718F18285882361F1809140
:1002F000F00084608093F0008091EF00D8011696A2
:100300009C9164C083818295880F807E92819695AE
:1003100096959695890F8093F30082818295880F38
:10032000807E8093F2008091EF008F7ED6CFD8013F
:100330001796ED91FC911897E80FF11D908190931D
:10034000FA008F5FCDCF8091F0008B7FD3CFF80183
:100350008385882309F448C08581880F880F880F1A
:100360009481929596959770890F8093F30084817C
:10037000880F880F880F9381929596959770890FB3
:100380008093F2008381880F880F880F9281929565
:1003900096959770890F8093F1008281880F880F5E
:1003A000880F8093F0008091EF0080618093EF00D0
:1003B00080E0F8019681891760F112868091F00043
:1003C0008B7F8093F0008091EF009681892B809342
:1003D000EF008091EF008F738093EF008091EF002A
:1003E00080648093EF00D3CE83818295880F807ED6
:1003F0009281969596959695890F8093F3008281C8
:100400008295880F807E8093F2008091EF008F7E2E
:10041000CDCFD8011796ED91FC911897E80FF11DFB
:1004200090819093FA008F5FC4CFD8011B968C9176
:100430001B97882309F446C015968C911597880F51
:10044000880F880F14969C911497929596959770A3
:10045000890F8093F30014968C911497880F880F5E
:10046000880F13969C911397929596959770890F84
:100470008093F20013968C911397880F880F880F42
:1004800012969C911297929596959770890F8093EA
:10049000F10012968C91880F880F880F8093F000DE
:1004A0008091EF0080618093EF0081E0D8011A967F
:1004B0008C931A978091F00084608093F000809173
:1004C000EF001DCFF80183818295880F807E928195
:1004D000969596959695890F8093F30082818295E3
:1004E000880F807E8093F2008091EF008F7EDBCFBB
:1004F00019821A821B821C821092F7008B81880F4E
:10050000880F880F9A81929596959770890F80939E
:10051000F6008A81880F880F880F998192959695A9
:100520009770890F8093F5008981880F880F880F55
:100530008093F4008091EF00F8019681892B8093DD
:10054000EF008091F4008B7F8093F4008091F400A1
:100550008E7FE8C019821A821B821C821092F700DB
:100560008B81880F880F880F9A8192959695977046
:10057000890F8093F6008A81880F880F880F9981F0
:10058000929596959770890F8093F5008981880FD1
:10059000880F880F8093F4008091EF00D8011696A1
:1005A0009C911697892B8093EF001A961C9280914C
:1005B000F40084608093F4008091F0008B7F80933E
:1005C000F000C4CF19821A821B821C821092F7009D
:1005D0008B81880F880F880F9A81929596959770D6
:1005E000890F8093F6008A81880F880F880F998180
:1005F000929596959770890F8093F5008981880F61
:10060000880F880F8093F4008091EF00F8019681A5
:10061000892B8093EF0081E082878091F4008460D1
:100620008093F4008091F00084608093F0008091CA
:10063000EF008F7D8093EF0089CFD8011B968C91BE
:100640001B97882309F479C015968C911597880F0C
:10065000880F880F14969C91149792959695977091
:10066000890F8093F30014968C911497880F880F4C
:10067000880F13969C911397929596959770890F72
:100680008093F20013968C911397880F880F880F30
:1006900012969C911297929596959770890F8093D8
:1006A000F10012968C91880F880F880F8093F000CC
:1006B0008091EF0080618093EF008FEF9FEFDC016E
:1006C00089839A83AB83BC838093F7008B81880FE7
:1006D000880F880F9A81929596959770890F8093CD
:1006E000F6008A81880F880F880F998192959695D8
:1006F0009770890F8093F5008981880F880F880F84
:100700008093F4008091EF00D80116969C91892B7C
:100710008093EF008091F4008B7F8093F4008091B0
:10072000F40081608093F4008091EF008F738093D8
:10073000EF008091EF00806854CEF80183818295AC
:10074000880F807E9281969596959695890F8093D5
:10075000F30082818295880F807E8093F2008091E1
:10076000EF008F7EA8CFF8018385882309F464C049
:100770008581880F880F880F948192959695977040
:10078000890F8093F3008481880F880F880F9381ED
:10079000929596959770890F8093F2008381880FC8
:1007A000880F880F9281929596959770890F809304
:1007B000F1008281880F880F880F8093F00080916C
:1007C000EF0080618093EF008FEF9FEFDC01898362
:1007D0009A83AB83BC838093F7008B81880F880F4B
:1007E000880F9A81929596959770890F8093F6005D
:1007F0008A81880F880F880F9981929596959770B6
:10080000890F8093F5008981880F880F880F809366
:10081000F4008091EF00F8019681892B8093EF001E
:1008200012868091F40084608093F4008091F0003F
:100830008B7F8093F00073CF83818295880F807EB9
:100840009281969596959695890F8093F300828173
:100850008295880F807E8093F2008091EF008F7EDA
:10086000B1CFD8011B968C911B97882309F47AC0CD
:1008700015968C911597880F880F880F14969C9168
:100880001497929596959770890F8093F30014961C
:100890008C911497880F880F880F13969C9113974B
:1008A000929596959770890F8093F20013968C918C
:1008B0001397880F880F880F12969C911297929524
:1008C00096959770890F8093F10012968C91880FFE
:1008D000880F880F8093F0008091EF0080618093F3
:1008E000EF008FEF9FEFDC0189839A83AB83BC839A
:1008F0008093F7008B81880F880F880F9A819295DB
:1009000096959770890F8093F6008A81880F880FDB
:10091000880F9981929596959770890F8093F5002D
:100920008981880F880F880F8093F4008091EF00F1
:10093000D80116969C911697892B8093EF0081E041
:100940001A968C938091F40084608093F4008091D7
:10095000F00084608093F0008091EF008F7D8093A1
:10096000EF00DDCEF80183818295880F807E928131
:10097000969596959695890F8093F300828182953E
:10098000880F807E8093F2008091EF008F7EA7CF4A
:10099000D8011796ED91FC911897E80FF11D908101
:1009A0009093FA008F5F2DCCD8011B968C911B97EA
:1009B000882309F47AC015968C911597880F880FB3
:1009C000880F14969C911497929596959770890F1D
:1009D0008093F30014968C911497880F880F880FDA
:1009E00013969C911397929596959770890F809383
:1009F000F20013968C911397880F880F880F129628
:100A00009C911297929596959770890F8093F1001B
:100A100012968C91880F880F880F8093F000809138
:100A2000EF0080618093EF0080E0F80196818917E4
:100A300008F451C08FEF9FEFDC0189839A83AB8369
:100A4000BC838093F7008B81880F880F880F9A8171
:100A5000929596959770890F8093F6008A81880FFA
:100A6000880F880F9981929596959770890F80933A
:100A7000F5008981880F880F880F8093F40080919A
:100A8000EF009681892B8093EF0081E0828780912F
:100A9000F40084608093F4008091F000846080937F
:100AA000F0008091EF0080625ACFF8018381829537
:100AB000880F807E9281969596959695890F809362
:100AC000F30082818295880F807E8093F20080916E
:100AD000EF008F7EA7CFD8011796ED91FC91189764
:100AE000E80FF11D90819093FA008F5F9ECFD8019F
:100AF00019961C924CCB9FE1F801918749CB80E07D
:100B00008093ED00EEEEF0E01192E83FF105E1F7A1
:100B1000805F803FA9F708953091ED0090E080E07C
:100B20009093ED002091EF00207C19F43093ED00BC
:100B300008958F5F905F8F3099F73093ED008FEFBE
:100B4000089581E08093D80082E08093E2008CE0F9
:100B50008093E30087E38093E40081E00895EE0F43
:100B6000FF1F0024001C0BBE0790F691E02D099496
:040B7000F894FFCF27
:080B74004461726B6F00000088
:00000001FF
